:100000000C9435000C945D000C945D000C945D0024
:100010000C945D000C945D000C945D000C945D00EC
:100020000C945D000C945D000C945D000C945D00DC
:100030000C945D000C945D000C945D000C945D00CC
:100040000C9425050C945D000C94D0010C940202D4
:100050000C945D000C945D000C945D000C945D00AC
:100060000C945D000C945D00330611241FBECFEF8D
:10007000D8E0DEBFCDBF11E0A0E0B1E0EEE9F1E1F4
:1000800002C005900D92A433B107D9F721E0A4E393
:10009000B1E001C01D92AA3DB207E1F710E0C5E34F
:1000A000D0E004C02197FE010E948606C433D10728
:1000B000C9F70E9424060C94CD080C94000026E099
:1000C00040E052EC61E070E084E391E00C944C017C
:1000D00060E071E084E391E00E94E10264EF71E08E
:1000E00080E090E00C94A00590E080E008950895F1
:1000F0000895FC01918D228D892F90E0805C9F4FA7
:10010000821B91098F7399270895FC01918D828D2F
:10011000981731F0828DE80FF11D858D90E00895DC
:100120008FEF9FEF0895FC01918D828D981761F0FC
:10013000A28DAE0FBF2FB11D5D968C91928D9F5FEA
:100140009F73928F90E008958FEF9FEF0895FC01C9
:10015000538D448D252F30E0842F90E0821B930B2C
:10016000541710F0CF9608950197089588E292E011
:10017000892B49F080E090E0892B29F00E94280229
:1001800081110C9400000895FC01A48DA80FB92FD3
:10019000B11DA35ABF4F2C91848D90E001968F73AF
:1001A0009927848FA689B7892C93A089B1898C91CE
:1001B00080648C93938D848D981306C00288F38994
:1001C000E02D80818F7D80830895CF93DF93EC01B4
:1001D000888D8823B9F0AA89BB89E889F9898C912F
:1001E00085FD03C0808186FD0DC00FB607FCF7CFEB
:1001F0008C9185FFF2CF808185FFEDCFCE010E94EB
:10020000C400E9CFDF91CF910895EF92FF920F9351
:100210001F93CF93DF93EC01F62E81E0888F9B8DA7
:100220008C8D981316C0E889F989808185FF11C0EB
:10023000EE89FF896083E889F98980818064808301
:1002400081E090E0DF91CF911F910F91FF90EF90AF
:1002500008950B8D10E00F5F1F4F0F731127E02ED5
:100260008C8D8E110CC00FB607FCFACFE889F98986
:10027000808185FFF5CFCE010E94C400F1CFEB8DC8
:10028000EC0FFD2FF11DE35AFF4FF0820B8FEA892F
:10029000FB8980818062D3CFCF92DF92EF92FF9271
:1002A0001F93CF93DF93EC016A017B01122FE88942
:1002B000F98982E08083C11481EED806E104F1045B
:1002C000A1F060E079E08DE390E0A70196010E9443
:1002D00064062150310941095109569547953795D2
:1002E0002795211580E1380798F0E889F98910826F
:1002F00060E874E88EE190E0A70196010E94640630
:10030000215031094109510956954795379527954F
:10031000EC85FD853083EE85FF852083188EEC8982
:10032000FD891083EA89FB89808180618083EA8965
:10033000FB89808188608083EA89FB89808180686D
:100340008083EA89FB8980818F7D8083DF91CF91D3
:100350001F91FF90EF90DF90CF900895CF93DF93A0
:10036000EC01E881F9810680F781E02D0995EA89A1
:10037000FB8980818F7E8083EA89FB898081877FEA
:100380008083EA89FB8980818F778083EA89FB8972
:1003900080818F7D80838A8D898FDF91CF910895B1
:1003A0001F920F920FB60F9211242F938F939F934A
:1003B000EF93FF93E0914401F09145018081E0913A
:1003C0004A01F0914B0182FD1BC0908180914D014B
:1003D0008F5F8F7320914E01821741F0E0914D01A4
:1003E000F0E0EC5CFE4F958F80934D01FF91EF9113
:1003F0009F918F912F910F900FBE0F901F90189586
:100400008081F4CF1F920F920FB60F9211242F9379
:100410003F934F935F936F937F938F939F93AF938C
:10042000BF93EF93FF9384E391E00E94C400FF9198
:10043000EF91BF91AF919F918F917F916F915F915C
:100440004F913F912F910F900FBE0F901F901895D5
:1004500084E391E00E94790021E0892B09F420E0F7
:10046000822F0895AF92BF92CF92DF92EF92FF92C8
:100470000F931F93CF93DF936C017B018B01040FCC
:10048000151FEB015E01AE18BF08C017D10759F068
:100490006991D601ED91FC910190F081E02DC601AA
:1004A0000995892B79F7C501DF91CF911F910F91A4
:1004B000FF90EF90DF90CF90BF90AF900895FB0139
:1004C00001900020E9F73197AF01461B570BDC0183
:1004D000ED91FC910280F381E02D0994EF92FF925F
:1004E0000F931F93CF93DF938C017B01D0E0C0E08B
:1004F000F701EC0FFD1F6491662361F0D801ED91C7
:10050000FC910190F081E02DC8010995892B11F033
:100510002196EECFCE01DF91CF911F910F91FF90E9
:10052000EF900895DB0114964D915C9115976D91B4
:100530007C91DC01ED91FC910280F381E02D099426
:100540006115710511F00C945F0290E080E0089550
:10055000DC01ED91FC910190F081E02D0994DB012B
:10056000ED91FC9111970190F081E02DBC01CD013E
:10057000099468E171E00C945F020F931F93CF938D
:10058000DF93EC010E946E028C01CE010E94B90241
:10059000800F911FDF91CF911F910F9108950F93BD
:1005A0001F93CF93DF93EC010E9492028C01CE0146
:1005B0000E94B902800F911FDF91CF911F910F917F
:1005C00008950F931F93CF93DF938C01D0E0C0E089
:1005D0006115710519F00E945F02EC01C8010E94CB
:1005E000B9028C0F9D1FDF91CF911F910F9108953C
:1005F0000F931F93CF93DF93EC010E94A8028C010D
:10060000CE010E94B902800F911FDF91CF911F91FF
:100610000F9108950F931F93CF93DF93EC010E94E6
:10062000AF028C01CE010E94B902800F911FDF91B1
:10063000CF911F910F9108958F929F92AF92BF9289
:10064000EF92FF920F931F93CF93DF93CDB7DEB757
:10065000A1970FB6F894DEBF0FBECDBF7C01FA01A3
:10066000CB0119A2223008F42AE08E010F5D1F4F42
:10067000822E912CB12CA12CBF01A50194010E94C6
:100680006406F901CA016A300CF5605DD8016E9309
:100690008D01232B242B252B79F790E080E01097F8
:1006A00021F0BD01C7010E945F02A1960FB6F89428
:1006B000DEBF0FBECDBFDF91CF911F910F91FF9095
:1006C000EF90BF90AF909F908F900895695CDECFC0
:1006D000CF92DF92EF92FF920F931F93CF93DF930E
:1006E000EC016A017B012115310579F4E881F9817A
:1006F0000190F081E02D642FDF91CF911F910F9138
:10070000FF90EF90DF90CF9009942A303105E9F403
:100710002AE0F7FE1AC06DE20E94A8028C0144276D
:100720005527BA014C195D096E097F092AE0CE01EF
:100730000E941C03800F911FDF91CF911F910F9199
:10074000FF90EF90DF90CF900895B701A601CE0102
:10075000DF91CF911F910F91FF90EF90DF90CF909D
:100760000C941C039A01AB01770F660B770B0C946A
:1007700068030F931F93CF93DF93EC010E94B203A2
:100780008C01CE010E94B902800F911FDF91CF91A1
:100790001F910F9108950F931F93CF93DF93EC0157
:1007A0000E9468038C01CE010E94B902800F911F44
:1007B000DF91CF911F910F9108952115310541F4DB
:1007C000DC01ED91FC910190F081E02D642F099402
:1007D0000C941C039A01462F50E070E060E00C94EA
:1007E000DD030F931F93CF93DF93EC010E94EA0385
:1007F0008C01CE010E94B902800F911FDF91CF9131
:100800001F910F9108959A01AB0170E060E00C9484
:10081000DD030F931F93CF93DF93EC010E9403043A
:100820008C01CE010E94B902800F911FDF91CF9100
:100830001F910F9108950F931F93CF93DF93EC01B6
:100840000E94DD038C01CE010E94B902800F911F2E
:10085000DF91CF911F910F9108952F923F924F9268
:100860005F926F927F928F929F92AF92BF92CF9240
:10087000DF92EF92FF921F93CF93DF93EC016A0117
:100880007B01722EAB019601CB01B6010E94C30819
:100890006BE171E0811126C046015701E894B7F879
:1008A0002FEF3FEF4FE75FE7C501B4010E94C30898
:1008B00081110CC02FEF3FEF4FE75FE7C501B40197
:1008C0000E94F9066FE171E0181664F02FEF3FEF18
:1008D0004FE75FE4C701B6010E9451081816B4F44F
:1008E00063E271E0CE01DF91CF911F91FF90EF9015
:1008F000DF90CF90BF90AF909F908F907F906F9040
:100900005F904F903F902F900C945F022FEF3FEF3E
:100910004FE75FECC701B6010E94F90687FDE0CF03
:1009200020E030E0A901C701B6010E94F906312C90
:10093000212C87FF09C06DE2CE010E94A8021C0194
:10094000F7FAF094F7F8F09410E060E070E080E0DF
:100950009FE3711641F020E030E040E251E40E9454
:10096000FE061F5FF6CFA70196010E948D062B01A0
:100970003C010E9470074B015C012AE0BC01A4010C
:10098000CE010E941C037C01E20CF31C1123B1F187
:10099000C501B4010E949F079B01AC01C301B201D4
:1009A0000E948C064B015C016EE2CE010E94A802FF
:1009B000E80EF91E115010F120E030E040E251E461
:1009C000C501B4010E9456082B013C010E9470072A
:1009D0004B014AE050E0CE010E940304E80EF91EEC
:1009E000B40190E080E00E949F079B01AC01C3012D
:1009F000B2010E948C064B015C01DCCFC701DF9184
:100A0000CF911F91FF90EF90DF90CF90BF90AF906C
:100A10009F908F907F906F905F904F903F902F901E
:100A200008950C942D040F931F93CF93DF93EC0143
:100A30000E942D048C01CE010E94B902800F911FEB
:100A4000DF91CF911F910F9108951F920F920FB6D2
:100A50000F9211242F933F938F939F93AF93BF9344
:100A60008091D1019091D201A091D301B091D40194
:100A70003091D90123E0230F2D3758F50196A11DA0
:100A8000B11D2093D9018093D1019093D201A093FD
:100A9000D301B093D4018091D5019091D601A0915A
:100AA000D701B091D8010196A11DB11D8093D50148
:100AB0009093D601A093D701B093D801BF91AF9185
:100AC0009F918F913F912F910F900FBE0F901F908C
:100AD000189526E8230F0296A11DB11DD2CF2FB77E
:100AE000F8946091D1017091D2018091D3019091DD
:100AF000D4012FBF08953FB7F8948091D50190910C
:100B0000D601A091D701B091D80126B5A89B05C008
:100B10002F3F19F00196A11DB11D3FBFBA2FA92F7C
:100B2000982F8827BC01CD01620F711D811D911D79
:100B300042E0660F771F881F991F4A95D1F70895E5
:100B40008F929F92AF92BF92CF92DF92EF92FF92DD
:100B50006B017C010E947B054B015C01C114D10437
:100B6000E104F104E9F00E9423060E947B05681964
:100B700079098A099B09683E73408105910570F3E4
:100B800021E0C21AD108E108F10888EE880E83E05E
:100B9000981EA11CB11CC114D104E104F10429F771
:100BA000FF90EF90DF90CF90BF90AF909F908F908D
:100BB00008958230910538F0880F991F880F991F8A
:100BC00005970197F1F70895789484B5826084BD04
:100BD00084B5816084BD85B5826085BD85B5816041
:100BE00085BDEEE6F0E0808181608083E1E8F0E0A1
:100BF0001082808182608083808181608083E0E8D0
:100C0000F0E0808181608083E1EBF0E080818460AE
:100C10008083E0EBF0E0808181608083EAE7F0E0B0
:100C20008081846080838081826080838081816014
:100C300080838081806880831092C10008950E9423
:100C4000C8080E94C80808950E94E4050E94770021
:100C50000E945F00C6EBD0E00E9468002097E1F39D
:100C60000E94B600F9CFE4E3F1E01382128288EE2D
:100C700093E0A0E0B0E084839583A683B7838AE005
:100C800091E09183808385EC90E09587848784EC64
:100C900090E09787868780EC90E0918B808B81EC49
:100CA00090E0938B828B82EC90E0958B848B86EC2A
:100CB00090E0978B868B118E128E138E148E089572
:100CC00090E080E008950895A1E21A2EAA1BBB1BB4
:100CD000FD010DC0AA1FBB1FEE1FFF1FA217B30708
:100CE000E407F50720F0A21BB30BE40BF50B661F1E
:100CF000771F881F991F1A9469F7609570958095E2
:100D000090959B01AC01BD01CF010895EE0FFF1F2F
:100D10000590F491E02D09945058BB27AA270E9412
:100D2000A4060C9417080E94090838F00E941008C5
:100D300020F039F49F3F19F426F40C9406080EF4C1
:100D4000E095E7FB0C940008E92F0E94280858F36F
:100D5000BA17620773078407950720F079F4A6F5A0
:100D60000C944A080EF4E0950B2EBA2FA02D0B011F
:100D7000B90190010C01CA01A0011124FF27591BE0
:100D800099F0593F50F4503E68F11A16F040A22FE6
:100D9000232F342F4427585FF3CF46953795279557
:100DA000A795F0405395C9F77EF41F16BA0B620B56
:100DB000730B840BBAF09150A1F0FF0FBB1F661F9D
:100DC000771F881FC2F70EC0BA0F621F731F841FE0
:100DD00048F4879577956795B795F7959E3F08F006
:100DE000B0CF9395880F08F09927EE0F97958795C8
:100DF00008950E94DC0708F481E008950E9412071C
:100E00000C9417080E94100858F00E94090840F03E
:100E100029F45F3F29F00C94000851110C944B0801
:100E20000C9406080E94280868F39923B1F355230F
:100E300091F3951B550BBB27AA27621773078407ED
:100E400038F09F5F5F4F220F331F441FAA1FA9F383
:100E500035D00E2E3AF0E0E832D091505040E69571
:100E6000001CCAF72BD0FE2F29D0660F771F881FD2
:100E7000BB1F261737074807AB07B0E809F0BB0BC5
:100E8000802DBF01FF2793585F4F3AF09E3F5105D9
:100E900078F00C9400080C944B085F3FE4F3983E04
:100EA000D4F3869577956795B795F7959F5FC9F7C2
:100EB000880F911D9695879597F90895E1E0660F43
:100EC000771F881FBB1F621773078407BA0720F0BC
:100ED000621B730B840BBA0BEE1F88F7E095089525
:100EE0000E94300888F09F5798F0B92F9927B75182
:100EF000B0F0E1F0660F771F881F991F1AF0BA95BE
:100F0000C9F714C0B13091F00E944A08B1E00895C9
:100F10000C944A08672F782F8827B85F39F0B93FBB
:100F2000CCF3869577956795B395D9F73EF4909570
:100F30008095709561957F4F8F4F9F4F0895E894EE
:100F400009C097FB3EF490958095709561957F4F11
:100F50008F4F9F4F9923A9F0F92F96E9BB279395BF
:100F6000F695879577956795B795F111F8CFFAF4CF
:100F7000BB0F11F460FF1BC06F5F7F4F8F4F9F4F00
:100F800016C0882311F096E911C0772321F09EE85E
:100F9000872F762F05C0662371F096E8862F70E0C4
:100FA00060E02AF09A95660F771F881FDAF7880F9E
:100FB0009695879597F90895990F0008550FAA0BF4
:100FC000E0E8FEEF16161706E807F907C0F012165C
:100FD0001306E407F50798F0621B730B840B950B5F
:100FE00039F40A2661F0232B242B252B21F40895B4
:100FF0000A2609F4A140A6958FEF811D811D089551
:1010000097F99F6780E870E060E008959FEF80ECBB
:10101000089500240A94161617061806090608955E
:1010200000240A9412161306140605060895092EC4
:101030000394000C11F4882352F0BB0F40F4BF2B33
:1010400011F460FF04C06F5F7F4F8F4F9F4F089573
:1010500057FD9058440F551F59F05F3F71F0479569
:10106000880F97FB991F61F09F3F79F0879508954E
:10107000121613061406551FF2CF4695F1DF08C06D
:10108000161617061806991FF1CF8695710561058A
:1010900008940895E894BB2766277727CB0197F932
:1010A00008950E94DC0708F48FEF08950E946908F4
:1010B0000C9417080E94090838F00E94100820F0CC
:1010C000952311F00C9400080C94060811240C943C
:1010D0004B080E94280870F3959FC1F3950F50E0CC
:1010E000551F629FF001729FBB27F00DB11D639FDA
:1010F000AA27F00DB11DAA1F649F6627B00DA11D80
:10110000661F829F2227B00DA11D621F739FB00D25
:10111000A11D621F839FA00D611D221F749F332795
:10112000A00D611D231F849F600D211D822F762F2E
:101130006A2F11249F5750409AF0F1F088234AF00B
:10114000EE0FFF1FBB1F661F771F881F9150504077
:10115000A9F79E3F510580F00C9400080C944B08B1
:101160005F3FE4F3983ED4F3869577956795B795FE
:10117000F795E7959F5FC1F7FE2B880F911D969518
:10118000879597F908950E94DC07880B990B0895BD
:0E11900081E090E0F8940C94CD08F894FFCF25
:10119E0048656C6C6F000000000005013202A7006C
:1011AE00E5007900930085000D0A006E616E0069FE
:1011BE006E66006F766600000000001F0632026049
:0411CE0006630600AE
:00000001FF
